:100FC10030303030003030303100303031300030AE
:100FD100303131003031303000303130310030319A
:100FE100313000303131310031303030003130308A
:100FF1003100313031300031303131003131303078
:101001000031313031003131313000313131310095
:1010110020205246494420426173656420202020EB
:1010210000417474656E64616E63652053797374F5
:101031006D00506C61636520596F75722043617258
:10104100643A00596F7572204944204E6F2E206911
:10105100733A003136303036364135454333390045
:1010610020417474656E64616E6365200020526571
:101071006769737465726564002053747564656E85
:10108100743120004174746E642E204E6F2E3A200C
:1010910000256400496E76616C6964204361726465
:0110A100004E
:03132F00013C007E
:06125600D2927F057E002C
:10125C00E4FDFCC3ED9FEE6480F8EC6480985015BF
:10126C00E4FBFA0BBB00010ABA04F8BBFBF50DBD9D
:05127C0000010C80DE02
:01128100224A
:0A131D00D290C291121256C2922221
:1012E000A907E954F0F59012131DE9C454F0F590E4
:0312F00002131DC9
:08132700C290121256C292227C
:1012F300A907E954F0F590121327E9C454F0F590C7
:03130300021327AB
:1012A9008B088A09890AAB08AA09A90A120E96FFAE
:1012B90060101212E07401250AF50AE43509F509EE
:0312C90080E4229C
:1012CC007F021212F37F281212F37F0E1212F37F99
:0412DC00010212F306
:0C130600758920759850758DFDD28E22DF
:0B1312003098FD85993CC298AF3C224A
:100D23008B088A09890AE4F577F578AB08AA09A93B
:100D33000A857882857783120EAF120F240D7430E3
:100D43000D80310D8C320D98330DA4340DAF350D5C
:100D5300BA360DC5370DD0380DDB390DE6410DF12F
:100D6300420DFC430E07440E12450E1D4600000EB5
:100D73002F750EFF750F0F7510C1020E26750EFF2E
:100D8300750F0F7510C6020E26750EFF750F0F75C2
:100D930010CB020E26750EFF750F0F7510D0020EC5
:100DA30026750EFF750F0F7510D58077750EFF75BD
:100DB3000F0F7510DA806C750EFF750F0F7510DF4E
:100DC3008061750EFF750F0F7510E48056750EFF69
:100DD300750F0F7510E9804B750EFF750F0F7510AA
:100DE300EE8040750EFF750F0F7510F38035750E8D
:100DF300FF750F0F7510F8802A750EFF750F0F75AD
:100E030010FD801F750EFF750F107510028014758D
:100E13000EFF750F107510078009750EFF750F1003
:100E230075100C7B017A0079101211FE0578E578B4
:100E330070020577C39406E57764809480500302BB
:100E43000D2EE4F543F544F577757809741025788C
:100E5300F58274003577F583E0FF60207400254444
:100E6300F58274003543F583EFF00544E5447002E1
:100E730005430578E57870D4057780D07400254460
:100E8300F58274003543F583E4F0F577F5787E0059
:030E93007F0022BB
:10119D008B1C8A1D891EE4F533F534F577F57875CA
:1011AD002340F524AB1CAA1DA91E85788285778363
:1011BD00120EAFFF60363395E0FEEF24D0FFEE3414
:1011CD00FFFEAC23AD24120EDCEF2534F534EE35E5
:1011DD0033F533AE23AF247C007D02120EEE8E2349
:1011ED008F240578E57870BC057780B8AE33AF34C1
:0111FD0022CF
:100B5C00D2A61213061212CC7BFF7A107911121244
:100B6C00A97FC01212F37BFF7A1079221212A97F8F
:100B7C00907E0112125C7F011212F37BFF7A1079C6
:100B8C00331212A97FC01212F3E4F577F578F577DA
:100B9C00F57812131274262578F8A6070578E578EF
:100BAC0070020577C3940CE5776480948040E374FD
:100BBC00262578F8E4F67F011212F37BFF7A107980
:100BCC00441212A97FC01212F3E4F577F578F57789
:100BDC0075780774262578F8E6FF1212E00578E59B
:100BEC007870020577C3940CE5776480948040E3B9
:100BFC007FD07E0712125C7FC01212F3E4F543F52E
:100C0C0044F57775780674262578F8E6FF60197434
:100C1C00352544F8A6070544E544700205430578DC
:100C2C00E57870E2057780DE74352544F8E4F6F556
:100C3C0077F578FB7A0079351212A97B007A007966
:100C4C0035120D238F3B7FC01212F3750BFF750C01
:100C5C0010750D54750E00750F0C7B007A007926FB
:100C6C0012112EEF3395E04F6003020D07053EE5A0
:100C7C003E7002053D7F011212F37BFF7A10796101
:100C8C001212A97FC01212F37BFF7A10796E121226
:100C9C00A97FC87E0012125C7F011212F37BFF7ACF
:100CAC0010797A1212A97FC01212F37BFF7A107995
:100CBC00851212A9750BFF750C10750D92853D0EE2
:100CCC00853E0F7B007A00792512085C7B007A0048
:100CDC0079251212A9D2A4C2A57F2C7E0112125C16
:100CEC00C2A4C2A57FC81E12125CC2A4D2A57F2CBE
:100CFC000E12125CC2A4C2A5020B827F011212F367
:100D0C007BFF7A1079951212A9C2A67F2C7E011254
:070D1C00125CD2A6020B825B
:030000000210A249
:0C10A200787FE4F6D8FD7581780210E933
:100E9600BB010689828A83E0225002E722BBFE025A
:090EA600E32289828A83E493228D
:100EAF00BB010CE58229F582E5833AF583E02250F8
:100EBF0006E92582F8E622BBFE06E92582F8E22242
:0D0ECF00E58229F582E5833AF583E493225C
:100EDC00EF8DF0A4A8F0CF8CF0A428CE8DF0A42E2A
:020EEC00FE22E4
:100EEE00C2D5EC30E709B2D5E4C39DFDE49CFCEE1F
:100EFE0030E715B2D5E4C39FFFE49EFE120F5CC32C
:100F0E00E49DFDE49CFC8003120F5C30D507C3E426
:060F1E009FFFE49EFE228D
:100F2400D083D082F8E4937012740193700DA3A35C
:100F340093F8740193F5828883E473740293686070
:060F4400EFA3A3A380DF70
:10080000E517240BF8E60517227808300702780B65
:10081000E475F001120FB1020E962000EB7F2ED28C
:10082000008018EF540F2490D43440D4FF30040BD0
:10083000EF24BFB41A0050032461FFE518600215CD
:1008400018051BE51B7002051A30070D7808E475C2
:10085000F001120FB1EF020F4A0212827403D207A5
:100860008003E4C207F5178B088A09890AE4F518A2
:10087000F51AF51BE51860077F2012083B80F57517
:1008800019FFC201C200C202C203C205C206C208E9
:10089000120809FF700D3007057F0012084CAF1BCE
:1008A000AE1A22B4255FC2D5C204120809FF24D0B3
:1008B000B40A00501A75F00A781830D50508B6FF4A
:1008C0000106C6A426F620D5047002D20380D924DE
:1008D000CFB41A00EF5004C2E5D204020A4CD20190
:1008E00080C6D20080C0D20280BCD2D580BAD205E8
:1008F00080B47F2012083B2002077401B518004025
:10090000F1120800FF12083B020874D208D20680D8
:1009100095120800FB120800FA120800F94A4B7001
:1009200006791D7A0B7BFF20022EE518602A7E00D7
:100930008E82758300120EAF60060EEE651970F0A0
:10094000C2D5EBC0E0EAC0E0E9C0E0EE120A93D005
:10095000E0F9D0E0FAD0E0FB120E96FF60AAEBC0FF
:10096000E0EAC0E0E9C0E012083BD0E02401F9D0A1
:10097000E03400FAD0E0FBE5190460DCD519D98039
:10098000877BFF7A0A798FD202809C791080027966
:1009900008C206C2088008D2D5790A8004790AC242
:1009A000D5E519047002F519E4FAFDFEFF120800FE
:1009B000FC7B08200113120800FD7B1030000A1296
:1009C0000800FE120800FF7B20EC3382D592D55040
:1009D00013C3E43000069FFFE49EFEE42001039D64
:1009E000FDE49CFCE4CBF8C201EC700CCFCECDCC86
:1009F000E824F8F870F38017C3EF33FFEE33FEED11
:100A000033FDEC33FCEB33FB994002FB0FD8E9EBF1
:100A1000300105F8D0E0C448B201C0E00AEC4D4E08
:100A20004F78207B0070C2EAB5190040BCC0E012CC
:100A30000A95D0F0D0E0200104C4C0E0C4B201C0E7
:100A4000F0120824D0F0D5F0EB020874120F24093C
:100A50001153098B5808E24C08DE42098F4F099761
:0F0A60004409974908F743099D550981460981C3
:100A6F00450981470B3D5008E62D08EA2E090D2B4D
:100A7F0008EE23090B200B262A08A64800000905BB
:100A8F003F3F3F00790AA2D5200314300509B91062
:100A9F00020404B9080104A2D52006025001042063
:100AAF0002689202B518005034C0E07F203003195D
:100ABF007F30A20272067205500F120AECC202C2F8
:100ACF0006C205C2087F30800F300503E9C0E0126F
:100ADF00083B300503D0E0F9D0E0B518CC3005174E
:100AEF007F30B9100C12083B7F583004077F788095
:100AFF0003B9080312083B3002057F2D02083B7F24
:100B0F00202008F87F2B2006F322920280CF286E38
:100B1F00756C6C2900D2011208003001F8C20178FF
:100B2F001830D50108F60208A62D5043495812086F
:100B3F00002403B405004001E4900B389312082CF5
:0D0B4F00743A12082CD20375180402098BA9
:1011FE008B0B8A0C890D8B118A128913AB0B050D83
:10120E00E50DAA0C7002050C14F9120E9670ED7411
:10121E00FF250DF50D74FF350CF50CAB0E0510E525
:10122E0010AA0F7002050F14F9120E96FFAB0B05E4
:10123E000DE50DAA0C7002050C14F9EF120F4A7091
:08124E00DAAB11AA12A9132268
:10112E008B088A09890AAB0BAA0CA90D120E96FE22
:10113E00AB08AA09A90A120E96FF6E702BEF600D6E
:10114E00E50F150F7002150E14450E70037F002269
:10115E007401250AF50AE43509F5097401250DF522
:10116E000DE4350CF50C80BEAB08AA09A90A120EC7
:10117E0096FDD3EE6480F8ED64809840037F0122E3
:0F118E00AB0BAA0CA90D120E96FFC3ED9FFF220B
:1010AE00020B5CE493A3F8E493A34003F68001F2F1
:1010BE0008DFF48029E493A3F85407240CC8C33343
:1010CE00C4540F4420C8834004F456800146F6DF12
:1010DE00E4800B010204081020408090132FE47E60
:1010EE00019360BCA3FF543F30E509541FFEE49307
:1010FE00A360010ECF54C025E060A840B8E493A3CE
:10110E00FAE493A3F8E493A3C8C582C8CAC583CAF8
:10111E00F0A3C8C582C8CAC583CADFE9DEE780BEB0
:0113320000BA
:100F4A00BB010689828A83F0225002F722BBFE0186
:020F5A00F32280
:100F5C00BC000BBE0029EF8DF084FFADF022E4CC79
:100F6C00F875F008EF2FFFEE33FEEC33FCEE9DEC42
:100F7C00984005FCEE9DFE0FD5F0E9E4CEFD22ED88
:100F8C00F8F5F0EE8420D21CFEADF075F008EF2FD2
:100F9C00FFED33FD4007985006D5F0F222C398FDC3
:050FAC000FD5F0EA2260
:100FB100FAE6FB0808E6F925F0F618E6CA3AF62241
:10128200EFB40A07740D12128D740A309811A899DE
:10129200B8130CC2983098FDA899C298B811F630CC
:0712A20099FDC299F59922A4
:00000001FF
